{
  "contractName": "HelloWorld",
  "abi": [
    {
      "constant": true,
      "inputs": [],
      "name": "hello",
      "outputs": [
        {
          "name": "",
          "type": "string"
        }
      ],
      "payable": false,
      "stateMutability": "pure",
      "type": "function",
      "signature": "0x19ff1d21"
    }
  ],
  "bytecode": "0x608060405234801561001057600080fd5b5061013f806100206000396000f3fe608060405260043610610041576000357c0100000000000000000000000000000000000000000000000000000000900463ffffffff16806319ff1d2114610046575b600080fd5b34801561005257600080fd5b5061005b6100d6565b6040518080602001828103825283818151815260200191508051906020019080838360005b8381101561009b578082015181840152602081019050610080565b50505050905090810190601f1680156100c85780820380516001836020036101000a031916815260200191505b509250505060405180910390f35b60606040805190810160405280600c81526020017f48656c6c6f20776f726c6421000000000000000000000000000000000000000081525090509056fea165627a7a72305820728f5ca2cfe63574e861246de1a3713bbf7c0b284e6831e6038facd9ca9816080029",
  "source": "pragma solidity >=0.4.22 <0.9.0;\n\ncontract HelloWorld {\n    function hello() pure public returns(string memory){\n        return 'Hello world!';\n    }\n\n    // pure = Read only function\n    // public = visibility of the function(can be accessed outside of the contract)\n    // returns = type of the returned value\n    // memory = data location(temporary on the memory)\n}",
  "sourcePath": "/home/brivan/Me/Projects/blockchain/helloWorld_dapp/contracts/HelloWorld.sol",
  "compiler": {
    "name": "solc",
    "version": "0.5.0+commit.1d4f565a.Emscripten.clang"
  },
  "schemaVersion": "3.0.2",
  "updatedAt": "2022-03-25T09:51:08.673Z",
  "devdoc": {
    "methods": {}
  },
  "userdoc": {
    "methods": {}
  }
}